:100000000C9464000C948C000C948C000C948C0068
:100010000C948C000C948C000C948C000C948C0030
:100020000C948C000C948C000C948C000C948C0020
:100030000C948C000C948C000C948C000C948C0010
:100040000C94DE060C948C000C94AA070C948C0083
:100050000C948C000C948C000C948C000C948C00F0
:100060000C948C000C948C000000000024002700ED
:100070002A0000000000250028002B0000000000DE
:1000800023002600290004040404040404040202DA
:100090000202020203030303030301020408102007
:1000A0004080010204081020010204081020000012
:1000B0000007000201000003040600000000000029
:1000C00000003006F308290611241FBECFEFD8E048
:1000D000DEBFCDBF11E0A0E0B1E0E4EFF3E102C08C
:1000E00005900D92A031B107D9F711E0A0E1B1E080
:1000F00001C01D92A23CB107E1F710E0C6ECD0E0D0
:1001000004C02297FE010E94E909C23CD107C9F749
:100110000E94D7060C94ED090C940000CF93DF9356
:10012000BC018230910510F462E070E0A091C00142
:10013000B091C101ED01E0E0F0E040E050E021C00D
:10014000888199818617970769F48A819B81309706
:1001500019F09383828304C09093C1018093C001FE
:10016000FE0134C06817790738F44115510519F0BC
:100170008417950708F4AC01FE018A819B819C01DC
:10018000E9012097E9F641155105A9F1CA01861B3D
:10019000970B049708F4BA01E0E0F0E02AC08D91D3
:1001A0009C91119784179507F9F46417750781F4EA
:1001B00012968D919C911397309719F093838283B7
:1001C00004C09093C1018093C001FD0132964CC0E0
:1001D000CA01861B970BFD01E80FF91F619371930C
:1001E00002978D939C9340C0FD01828193819C0175
:1001F000D9011097A1F68091BE019091BF01892B82
:1002000041F480910201909103019093BF0180938A
:10021000BE0140910401509105014115510541F481
:100220004DB75EB78091000190910101481B590BB9
:100230002091BE013091BF01CA01821B930B86172A
:10024000970780F0AB014E5F5F4F8417950750F022
:10025000420F531F5093BF014093BE01F9016193B8
:10026000719302C0E0E0F0E0CF01DF91CF910895FB
:10027000CF93DF93009709F450C0EC0122971B82C3
:100280001A82A091C001B091C101109709F140E01C
:1002900050E0AC17BD0708F1BB83AA83FE01219192
:1002A0003191E20FF31FAE17BF0779F48D919C9146
:1002B0001197280F391F2E5F3F4F398328831296DD
:1002C0008D919C9113979B838A834115510571F4FD
:1002D000D093C101C093C00120C012968D919C9112
:1002E0001397AD01009711F0DC01D3CFFA01D3834E
:1002F000C28321913191E20FF31FCE17DF0769F41A
:1003000088819981280F391F2E5F3F4FFA01318371
:1003100020838A819B8193838283DF91CF9108958B
:10032000DC0101C06D9341505040E0F70895FC019D
:10033000718360830895FC01118210820895FF92F9
:100340000F931F93CF93DF938C01F62EC0E0D0E084
:1003500008C0F801808191816C2F4F2D0E9471049B
:100360002196F801808191810E946A0490E0C8176B
:10037000D9077CF3DF91CF911F910F91FF900895E2
:10038000CF92DF92EF92FF920F931F93CF93DF9361
:100390006C017B01FB0100811181FC018081918155
:1003A0000E946F0490E0801791071CF0C0E0D0E03D
:1003B00024C0F70100811181F601808191810E94A2
:1003C0006F04682FC80170E00E948309EB01F701F8
:1003D00000811181F601808191810E946F0490E07B
:1003E0009C01C29FC001C39F900DD29F900D11240C
:1003F000081B190BF701118300838C2FDF91CF911C
:100400001F910F91FF90EF90DF90CF900895CF92C2
:10041000DF92EF92FF920F931F93DF93CF9300D061
:10042000CDB7DEB7FC017A836983F42ED22EE02E9D
:1004300000811181BE016F5F7F4F0E94C001682F54
:10044000C80149812F2D0D2DCC240E9491030F90BE
:100450000F90CF91DF911F910F91FF90EF90DF9060
:10046000CF9008956E30C8F56830C8F4442359F031
:100470002BB181E090E002C0880F991F6A95E2F7E6
:10048000282B2BB908952BB181E090E002C0880F92
:10049000991F6A95E2F7809582238BB9089570E0E1
:1004A000442369F025B16850704081E090E002C0BB
:1004B000880F991F6A95E2F7282B25B9089525B171
:1004C0006850704081E090E002C0880F991F6A95E3
:1004D000E2F78095822385B9089570E0442369F09E
:1004E00028B16E50704081E090E002C0880F991FE3
:1004F0006A95E2F7282B28B9089528B16E5070400C
:1005000081E090E002C0880F991F6A95E2F780951C
:10051000822388B908950F931F938C01F801678196
:1005200040E00E943202C801F801668141E00E9469
:1005300032020000C801F801678141E00E943202E6
:1005400000000000C801F801678140E00E9432020B
:10055000C801F801668140E00E9432020000C80133
:10056000F801678141E00E94320200000000C801EA
:10057000F801678140E00E943202C801F8016681FB
:1005800040E00E9432020000C801F801678141E0AA
:100590000E943202000000001F910F910895AF9257
:1005A000BF92CF92DF92EF92FF920F931F93CF9360
:1005B000DF93EC01F62EE22EFA9400E010E0A42E78
:1005C000BB24CF2CDD24C7FCD0941CC0CE016F818E
:1005D00040E00E943202A601401B510BC50102C03F
:1005E000959587954A95E2F7AC014170CE016E81F1
:1005F0000E943202CE016F8141E00E943202FA94E1
:100600000F5F1F4FF7FEE2CFEE2061F0CE016F814A
:1006100040E00E94320200000000CE016F8141E004
:100620000E943202DF91CF911F910F91FF90EF90C6
:10063000DF90CF90BF90AF900895DF92EF92FF923E
:100640000F931F93CF93DF93EC01D62E00E010E0C1
:10065000E42EFF2418C0CE016F8140E00E943202D8
:10066000A701002E02C0559547950A94E2F7417004
:10067000CE016E810E943202CE016F8141E00E9464
:1006800032020F5F1F4F0D1534F3DF91CF911F9191
:100690000F91FF90EF90DF900895CF92DF92EF924D
:1006A000FF920F931F93CF93DF93EC01142FF22E41
:1006B000E32EC62EDD24EC81FD81EC0DFD1D608155
:1006C00040E00E943202CE0163E045E020E00E945B
:1006D000CF02CE0167E0412F20E00E94CF022F2DF4
:1006E0003E2DC9017C0110E008C0CE0164E0F70195
:1006F00041917F010E941D031F5F1017B1F7EC812C
:10070000FD81EC0DFD1DCE01608141E00E943202B1
:10071000DF91CF911F910F91FF90EF90DF90CF90DD
:100720000895CF92EF920F931F93DF93CF930F9281
:10073000CDB7DEB7DC01162F642F722F19968C917E
:100740001997189F502D1124540F283058F030E07D
:100750002850304081E090E002C0880F991F2A9510
:10076000E2F708C081E090E0022E02C0880F991FD6
:100770000A94E2F7982F0023A1F0252F30E0CC2037
:1007800039F0ED91FC91E20FF31F8081892B14C0A9
:100790001296ED91FC911397E20FF31F8081892B44
:1007A00015C0252F30E09095CC2041F0ED91FC91C3
:1007B000E20FF31F8081892380832BC01296ED9175
:1007C000FC911397E20FF31F808189238083EE2031
:1007D00001F140E0743008F041E01296ED91FC9197
:1007E0001397E50FF11D80818983442341F08081B7
:1007F00090E024E0959587952A95E1F78983660F27
:10080000460FCD01612F9E012F5F3F4F01E00E94F7
:100810004D030F90CF91DF911F910F91EF90CF90EB
:100820000895CF92DF92EF92FF920F931F93CF9391
:10083000DF93EC01CC24DD243EC019851C9D102DD6
:100840001124EC81FD81EC0DFD1DCE01608140E0A5
:100850000E943202CE0163E045E020E00E94CF0218
:10086000CE0167E040E020E00E94CF02E12EFF24AD
:1008700000E010E00CC0EA81FB81EE0DFF1DCE010F
:1008800068E040810E941D030894E11CF11C98015E
:100890000F5F1F4F898590E02817390764F3EC81BB
:1008A000FD81EC0DFD1DCE01608141E00E94320210
:1008B0000894C11CD11C888590E0C816D9060CF498
:1008C000BCCFDF91CF911F910F91FF90EF90DF9000
:1008D000CF900895FC018085089588E0089580E216
:1008E0000895EF92FF921F93CF93DF93EC01142FA3
:1008F000E62EFF24EC81FD81EE0DFF1D608140E0BE
:100900000E943202CE010E948B02103108F01FE0DB
:100910001056CE0168E0412F21E00E94CF02EC8109
:10092000FD81EE0DFF1DCE01608141E00E9432028B
:10093000DF91CF911F91FF90EF9008950F931F9338
:10094000CF93DF93EC01062F142F988589854423DC
:1009500031F0989F900111248881998105C0989F5A
:10096000900111248A819B8160E070E0A9010E94BE
:1009700090010023E9F11123D9F500E010E00BC04C
:10098000EC81FD81E00FF11FCE01608140E00E940B
:1009900032020F5F1F4F888590E00817190784F314
:1009A000CE0163E045E020E00E94CF02CE0167E087
:1009B00040E020E00E94CF0210E0CE0164E04FEF63
:1009C0000E941D031F5F1032C1F700E010E00BC052
:1009D000EC81FD81E00FF11FCE01608141E00E94BA
:1009E00032020F5F1F4F888590E00817190784F3C4
:1009F000DF91CF911F910F9108950F931F93CF9384
:100A0000DF93EC01042F122F4985222331F0649FDC
:100A1000C00111242881398105C0649FC0011124BF
:100A20002A813B81280F391FC90160E070E050E046
:100A30000E949001002329F0112319F4CE010E9495
:100A40001104DF91CF911F910F910895CF92DF9202
:100A5000EF92FF920F931F938C01E62EF42EC62E79
:100A6000DD24DC011496ED91FC911597EC0DFD1D34
:100A70004083842F61E00E948A07C8016F2D41E006
:100A80000E943202D8011496ED91FC911597EC0D5D
:100A9000FD1DC801608140E00E943202C8010E9431
:100AA0008B02C80168E040E021E00E94CF02C8014B
:100AB00068E041E021E00E94CF02C80168E048E21E
:100AC00021E00E94CF02C80168E043E021E00E94DB
:100AD000CF02C80168E048E021E00E94CF02C801CF
:100AE00068E04FEA21E00E94CF02D8011496ED9110
:100AF000FC911597EC0DFD1DC801608141E00E943D
:100B00003202C8016E2D41E020E00E94FD041F91D9
:100B10000F91FF90EF90DF90CF900895CF93DF93E8
:100B2000EC018A819B81009721F00E9438011B8291
:100B30001A828C819D81009721F00E9438011D82CC
:100B40001C8288819981009721F00E9438011982C6
:100B50001882DF91CF910895DF92EF92FF920F9369
:100B60001F93CF93DF93EC01F62ED42EE22E1B823F
:100B70001A821D821C822E834F83688780E28987B8
:100B8000162F1295110F107E812F90E00E948E007B
:100B90008A839B8360E070E0412F50E00E949001C7
:100BA000002361F0812F90E00E948E00888399835A
:100BB00060E070E0412F50E00E9490018F2D90E0A6
:100BC0000E948E008C839D8360E070E04F2D50E08A
:100BD0000E9490018E2D61E00E948A078D2D61E0B8
:100BE0000E948A07CE016E2D41E00E943202CE01A2
:100BF0006D2D41E00E943202DF91CF911F910F9144
:100C0000FF90EF90DF9008950F938130910591F45C
:100C10006F5F7F4FE1F480E191E061E04BE02AE01B
:100C200000E00E94AC058AE191E060E171E00E9481
:100C300097010DC0892B59F46F5F7F4F41F48AE112
:100C400091E00E949B0180E191E00E948E050F914E
:100C5000089580E090E06FEF7FEF0E940406089512
:100C600081E090E06FEF7FEF0E9404060895EF921D
:100C7000FF920F93CF93DF93EE24FF2413C08AE1FA
:100C800091E0BE01A70121E030E001E00E940702EF
:100C9000219680911C0190E0C817D90784F308942D
:100CA000E11CF11C80911D0190E0E816F9061CF48E
:100CB000C0E0D0E0EECF60ED77E080E090E00E9411
:100CC000260780E191E060E040E00E949E0480E120
:100CD00091E00E941104EE24FF2413C08AE191E008
:100CE000BE01A70121E030E000E00E94070221964A
:100CF00080911C0190E0C817D90784F30894E11C87
:100D0000F11C80911D0190E0E816F9061CF4C0E08A
:100D1000D0E0EECF80E191E00E94110400E08AE192
:100D200091E0602F0E949F0168EC70E080E090E00D
:100D30000E9426070F5F003191F780E191E060E0AB
:100D400040E00E949E0480E191E00E941104DF9146
:100D5000CF910F91FF90EF900895FF920F931F9303
:100D60008BEA91E040E855E260E070E00E94E7071E
:100D700000E111E0C8010E946A04F82EC8010E9437
:100D80006F0481508F9D802D11248F5F80931C01F3
:100D9000C8010E946D0480931D01C80160E044E019
:100DA00021E00E9426051F910F91FF9008950E9457
:100DB00050070E94AD060E943706FDCF1F920F928A
:100DC0000FB60F9211242F933F938F939F93AF935E
:100DD000BF938091220190912301A0912401B091B1
:100DE0002501309126010196A11DB11D232F2D5FF4
:100DF0002D3720F02D570196A11DB11D20932601FE
:100E00008093220190932301A0932401B0932501A4
:100E100080911E0190911F01A0912001B0912101AC
:100E20000196A11DB11D80931E0190931F01A093F7
:100E30002001B0932101BF91AF919F918F913F917C
:100E40002F910F900FBE0F901F901895EF92FF9269
:100E50000F931F937B018C018FB7F894409122016F
:100E60005091230160912401709125018FBF2FB70C
:100E7000F8948091220190912301A0912401B091D6
:100E800025012FBF841B950BA60BB70BE816F9069F
:100E90000A071B0760F71F910F91FF90EF900895CD
:100EA000789484B5826084BD84B5816084BD85B545
:100EB000826085BD85B5816085BDEEE6F0E080810C
:100EC00081608083E1E8F0E08081826080838081BE
:100ED00081608083E0E8F0E0808181608083E1EBE5
:100EE000F0E0808184608083E0EBF0E080818160CD
:100EF0008083EAE7F0E08081846080838081826083
:100F0000808380818160808380818068808310926B
:100F1000C1000895282F30E0C90186569F4FFC017B
:100F200094912A573F4FF9018491882391F0E82F3B
:100F3000F0E0EE0FFF1FE859FF4FA591B491662333
:100F400029F48C91909589238C9308958C91892B09
:100F50008C9308951F920F920FB60F9211242F9326
:100F60003F934F935F936F937F938F939F93AF9331
:100F7000BF93EF93FF934091C600E091A701F091DA
:100F8000A801CF01019660E870E00E9483099C01EE
:100F90008091A9019091AA012817390739F0E95DDC
:100FA000FE4F40833093A8012093A701FF91EF915A
:100FB000BF91AF919F918F917F916F915F914F9171
:100FC0003F912F910F900FBE0F901F9018955F9239
:100FD0006F927F928F929F92AF92BF92CF92DF9249
:100FE000EF92FF920F931F93CF93DF93EC013A019F
:100FF0004B01413482E458078FE0680780E07807AE
:101000000CF07FC060E874E88EE190E0A4019301E9
:101010000E94B8092150304040405040CA01B901F7
:1010200022E030E040E050E00E94B80959016A0136
:10103000A6019501209530954095509594E0220F9A
:10104000331F441F551F9A95D1F760E074E284EF77
:1010500090E00E94B809CA01B9012FEF30E040E0EA
:1010600050E00E946409A40193010E94B809C901DB
:1010700081509F4F181619061CF4522E5A9403C023
:1010800055245394521A60E079E08DE390E0A40176
:1010900093010E94B8092150304040405040CA019D
:1010A000B90122E030E040E050E00E94B80920950C
:1010B00030954095509583E0220F331F441F551FF4
:1010C0008A95D1F760E074E284EF90E00E94B8095D
:1010D000CA01B9012FEF30E040E050E00E946409FE
:1010E000A40193010E94B809C90181509F4F1816AD
:1010F00019061CF4822F815002C081E0821B8515E5
:1011000000F5E885F98581E090E00A8802C0880F43
:10111000991F0A94E2F7808360E079E08DE390E024
:10112000A40193010E94B809215030404040504032
:10113000CA01B90122E030E040E050E00E94B80965
:1011400004C0E885F98510829501EC81FD8130832A
:10115000EE81FF812083EA85FB85208141E050E01C
:10116000CA010E8402C0880F991F0A94E2F7282B47
:101170002083EA85FB852081CA010F8402C0880F85
:10118000991F0A94E2F7282B2083EA85FB8580814A
:10119000088802C0440F551F0A94E2F7842B80830D
:1011A000DF91CF911F910F91FF90EF90DF90CF9043
:1011B000BF90AF909F908F907F906F905F900895B9
:1011C000FC01A085B18521898C9190E0022E02C09E
:1011D000959587950A94E2F780FFF6CF0484F5850C
:1011E000E02D608308958AE091E09093AC018093B4
:1011F000AB0187E291E09093AE018093AD0185EC65
:1012000090E09093B0018093AF0184EC90E09093D4
:10121000B2018093B10180EC90E09093B40180938F
:10122000B30181EC90E09093B6018093B50186EC18
:1012300090E09093B8018093B70184E08093B90166
:1012400083E08093BA0187E08093BB0185E08093BF
:10125000BC0181E08093BD0108950F931F93CF934C
:10126000DF938C01EB0109C02196D801ED91FC912F
:101270000190F081E02DC801099568816623A1F7EE
:10128000DF91CF911F910F910895EF92FF920F93ED
:101290001F93CF93DF938C017B01EA010CC0D70130
:1012A0006D917D01D801ED91FC910190F081E02DCF
:1012B000C80109952197209791F7DF91CF911F9150
:1012C0000F91FF90EF900895629FD001739FF001FE
:1012D000829FE00DF11D649FE00DF11D929FF00DC6
:1012E000839FF00D749FF00D659FF00D9927729FFD
:1012F000B00DE11DF91F639FB00DE11DF91FBD0188
:10130000CF011124089597FB092E07260AD077FDF7
:1013100004D049D006D000201AF4709561957F4F13
:101320000895F6F7909581959F4F0895A1E21A2EA2
:10133000AA1BBB1BFD010DC0AA1FBB1FEE1FFF1F79
:10134000A217B307E407F50720F0A21BB30BE40BC9
:10135000F50B661F771F881F991F1A9469F7609510
:101360007095809590959B01AC01BD01CF010895CA
:1013700097FB092E05260ED057FD04D0D7DF0AD0E3
:10138000001C38F450954095309521953F4F4F4FB4
:101390005F4F0895F6F790958095709561957F4F12
:1013A0008F4F9F4F0895AA1BBB1B51E107C0AA1F77
:1013B000BB1FA617B70710F0A61BB70B881F991FF6
:1013C0005A95A9F780959095BC01CD010895EE0F2F
:1013D000FF1F0590F491E02D099410E0C6ECD0E0D9
:1013E00004C0FE010E94E9092296C83CD107C9F752
:0413F000F894FFCF9F
:1013F4002000C201000000000000E0082D0945099A
:00000001FF
