:100000000C94DA000C9402010C9402010C9402018D
:100010000C9402010C9402010C9402010C94020154
:100020000C9402010C9402010C9402010C94020144
:100030000C9402010C9402010C9402010C94020134
:100040000C945B0C0C9402010C94270D0C9402018F
:100050000C9402010C9402010C9402010C94020114
:100060000C9402010C94020100000000003F48487B
:10007000483F7F494949363E414141227F41412223
:100080001C7F494949417F484848403E4149492EE3
:100090007F0808087F00417F4100060101017E7F43
:1000A000081422417F010101017F2010207F7F1071
:1000B00008047F3E4141413E7F484848303E41452B
:1000C000423D7F484C4A31314949494640407F4092
:1000D000407E0101017E7C0201027C7F0204027FDE
:1000E000631408146360100F106043454951613E6A
:1000F0004549513E0010207F004749494931424956
:100100005969460818287F0871494949463E4949B6
:1001100049064047485060364949493630494949BF
:100120003E7F4141417F000000007F4F49494979AE
:10013000494949497F780808087F794949494F7FEB
:100140004949494F404040407F7F4949497F79496B
:1001500049497F00000000240027002A0000000019
:1001600000250028002B00000000002300260029A5
:100170000004040404040404040202020202020350
:10018000030303030301020408102040800102045A
:1001900008102001020408102000000007000201DE
:1001A00000000304060000000000000000005008EA
:1001B000770D490811241FBECFEFD8E0DEBFCDBFB9
:1001C00011E0A0E0B1E0EAEEFDE102C005900D9281
:1001D000AA31B107D9F711E0AAE1B1E001C01D923F
:1001E000AC3CB107E1F711E0C2EBD1E004C02297CB
:1001F000FE010E94AD0ECE3AD107C9F70E94540C01
:100200000C94E80E0C940000CF93DF93BC01823075
:10021000910510F462E070E0A091CA01B091CB01A9
:10022000ED01E0E0F0E040E050E021C088819981FC
:100230008617970769F48A819B81309719F0938319
:10024000828304C09093CB018093CA01FE0134C025
:100250006817790738F44115510519F08417950787
:1002600008F4AC01FE018A819B819C01E901209781
:10027000E9F641155105A9F1CA01861B970B0497B0
:1002800008F4BA01E0E0F0E02AC08D919C9111974A
:1002900084179507F9F46417750781F412968D9108
:1002A0009C911397309719F09383828304C09093A5
:1002B000CB018093CA01FD0132964CC0CA01861B56
:1002C000970BFD01E80FF91F6193719302978D93CE
:1002D0009C9340C0FD01828193819C01D9011097BC
:1002E000A1F68091C8019091C901892B41F48091B8
:1002F0000801909109019093C9018093C801409130
:100300000A0150910B014115510541F44DB75EB7FB
:100310008091060190910701481B590B2091C8015B
:100320003091C901CA01821B930B8617970780F091
:10033000AB014E5F5F4F8417950750F0420F531F7C
:100340005093C9014093C801F9016193719302C0B0
:10035000E0E0F0E0CF01DF91CF910895CF93DF93FC
:10036000009709F450C0EC0122971B821A82A091D9
:10037000CA01B091CB01109709F140E050E0AC17F1
:10038000BD0708F1BB83AA83FE0121913191E20FE1
:10039000F31FAE17BF0779F48D919C911197280F29
:1003A000391F2E5F3F4F3983288312968D919C9180
:1003B00013979B838A834115510571F4D093CB0128
:1003C000C093CA0120C012968D919C911397AD01E4
:1003D000009711F0DC01D3CFFA01D383C2832191BE
:1003E0003191E20FF31FCE17DF0769F488819981FD
:1003F000280F391F2E5F3F4FFA01318320838A81F6
:100400009B8193838283DF91CF910895A0E0B0E038
:10041000ECE0F2E00C94B90EEC01A880B980CA803F
:10042000DB80A114B104C104D10441F484E2A82EFC
:1004300089EDB82E8BE5C82E87E0D82EC601B50110
:100440002DE133EF41E050E00E947C0E27EA31E4D9
:1004500040E050E00E94280E7B018C01C601B501EE
:100460002DE133EF41E050E00E947C0ECA01B9015A
:100470002CEE34EF4FEF5FEF0E94280E6E0D7F1DC4
:10048000801F911F97FF04C06150704080409048CA
:10049000688379838A839B839B01AC015F77B90171
:1004A000CA01CDB7DEB7EAE00C94D50E0E94060271
:1004B00008958CE091E00E940602089560930C017B
:1004C00070930D0180930E0190930F010895FB012D
:1004D000DC0102C001900D9241505040D8F70895C0
:1004E000DC0101C06D9341505040E0F70895FC01DC
:1004F000718360830895FC01118210820895CF9268
:10050000DF92EF92FF920F931F93CF93DF936C01D3
:100510007B01FB0100811181FC01808191810E949E
:10052000AA0690E0801791071CF0C0E0D0E024C03C
:10053000F70100811181F601808191810E94AA0654
:10054000682FC80170E00E94470EEB01F70100819F
:100550001181F601808191810E94AA0690E09C01A0
:10056000C29FC001C39F900DD29F900D1124081B04
:10057000190BF701118300838C2FDF91CF911F910D
:100580000F91FF90EF90DF90CF900895EF92FF9240
:100590000F931F93DF93CF9300D0CDB7DEB7FC014D
:1005A0007A836983142F022FE080F180BE016F5F90
:1005B0007F4F0E947F02682FC7014981212F0E942F
:1005C00040040F900F90CF91DF911F910F91FF90FA
:1005D000EF900895CF92DF92EF92FF920F931F93C7
:1005E000DF93CF9300D0CDB7DEB7FC017A83698368
:1005F000F42ED22EE02E00811181BE016F5F7F4F5D
:100600000E947F02682FC80149812F2D0D2DCC2417
:100610000E94CC050F900F90CF91DF911F910F9109
:10062000FF90EF90DF90CF9008955F926F927F924E
:100630008F929F92AF92BF92CF92DF92EF92FF92F2
:100640000F931F93CF93DF93EC015E2C822F90E0EA
:10065000861B910997FF03C0909581959F4F382F76
:10066000802F90E0841B910997FF03C0909581959E
:100670009F4F982F261728F08824839499249394C9
:1006800004C088248A9499249A94041728F0AA24F0
:10069000A394BB24B39404C0AA24AA94BB24BA9400
:1006A00039175CF0832F37FD8F5FE82EE594C32E5A
:1006B000692E732E8824BB240AC0892F97FD8F5F73
:1006C000E82EE594C92E632E792E9924AA24F62EBD
:1006D000142FDD2417C06F2D772767FD7095412FEC
:1006E000552747FD5095CE01252D30E000E00E94B2
:1006F000EA02E60CEC141CF0EC18F80C1A0DF90CDC
:100700001B0DD3947D143CF7DF91CF911F910F9176
:10071000FF90EF90DF90CF90BF90AF909F908F9021
:100720007F906F905F9008952F923F924F925F92CB
:100730006F927F928F929F92AF92BF92CF92DF92F1
:10074000EF92FF920F931F93DF93CF9300D000D0CF
:10075000CDB7DEB73C01102F522E422E41941C82A1
:100760001B82262F30E03A832983242E33246DC048
:1007700089809A808B819C81880E991EA52CBB2430
:10078000A7FCB0946501C20CD31CC301B401A6013F
:10079000212F30E000E00E94EA02E980FA80EB813C
:1007A000FC81EE1AFF0AC301B701A601212F30E038
:1007B0000E94EA026101CA18DB08C301B701A60161
:1007C000212F30E00E94EA02C301B401A601212FCB
:1007D00030E00E94EA0289809A808A0C9B1CCB80C0
:1007E000DC80C20CD31CC301B401A601212F30E070
:1007F0000E94EA02E980FA80EA18FB08C301B70107
:10080000A601212F30E00E94EA0261012B813C8188
:10081000C21AD30AC301B701A601212F30E00E94FA
:10082000EA02C301B401A601212F30E00E94EA02CE
:100830008B81880F480E47FC03C05A944518451811
:100840008B819C8101969C838B839B8159160CF034
:100850008FCF0F900F900F900F90CF91DF911F913E
:100860000F91FF90EF90DF90CF90BF90AF909F904F
:100870008F907F906F905F904F903F902F90089552
:100880000F93FC018185689F602D1124283018F09A
:1008900030E02850304081E090E002C0880F991F7E
:1008A0002A95E2F7282F460F640F70E0002321F00D
:1008B0000190F081E02D03C00280F381E02DE60F6E
:1008C000F71F808140E090E030E082239323892B62
:1008D00009F041E0842F0F9108956E30C8F568301B
:1008E000C8F4442359F02BB181E090E002C0880F96
:1008F000991F6A95E2F7282B2BB908952BB181E057
:1009000090E002C0880F991F6A95E2F780958223D4
:100910008BB9089570E0442369F025B168507040A8
:1009200081E090E002C0880F991F6A95E2F7282BBA
:1009300025B9089525B16850704081E090E002C06B
:10094000880F991F6A95E2F78095822385B90895EB
:1009500070E0442369F028B16E50704081E090E06F
:1009600002C0880F991F6A95E2F7282B28B90895CD
:1009700028B16E50704081E090E002C0880F991F4E
:100980006A95E2F78095822388B908950F931F93A3
:100990008C01F801678140E00E946D04C801F801F4
:1009A000668141E00E946D040000C801F801678182
:1009B00041E00E946D0400000000C801F801678159
:1009C00040E00E946D04C801F801668140E00E9489
:1009D0006D040000C801F801678141E00E946D04C8
:1009E00000000000C801F801678140E00E946D042A
:1009F000C801F801668140E00E946D040000C80152
:100A0000F801678141E00E946D04000000001F9121
:100A10000F910895AF92BF92CF92DF92EF92FF9223
:100A20000F931F93CF93DF93EC01F62EE22EFA94EF
:100A300000E010E0A42EBB24CF2CDD24C7FCD09412
:100A40001CC0CE016F8140E00E946D04A601401BD6
:100A5000510BC50102C0959587954A95E2F7AC0107
:100A60004170CE016E810E946D04CE016F8141E024
:100A70000E946D04FA940F5F1F4FF7FEE2CFEE2045
:100A800061F0CE016F8140E00E946D040000000023
:100A9000CE016F8141E00E946D04DF91CF911F91E3
:100AA0000F91FF90EF90DF90CF90BF90AF9008959F
:100AB000DF92EF92FF920F931F93CF93DF93EC019E
:100AC000D62E00E010E0E42EFF2418C0CE016F8186
:100AD00040E00E946D04A701002E02C05595479585
:100AE0000A94E2F74170CE016E810E946D04CE013E
:100AF0006F8141E00E946D040F5F1F4F0D1534F3AD
:100B0000DF91CF911F910F91FF90EF90DF900895AB
:100B1000CF92DF92EF92FF920F931F93CF93DF93C9
:100B2000EC01142FF22EE32EC62EDD24EC81FD8184
:100B3000EC0DFD1D608140E00E946D04CE0163E07C
:100B400045E020E00E940A05CE0167E0412F20E049
:100B50000E940A052F2D3E2DC9017C0110E008C01E
:100B6000CE0164E0F70141917F010E9458051F5FAB
:100B70001017B1F7EC81FD81EC0DFD1DCE016081F8
:100B800041E00E946D04DF91CF911F910F91FF9082
:100B9000EF90DF90CF900895CF92EF920F931F9335
:100BA000DF93CF930F92CDB7DEB7DC01162F642F02
:100BB000722F19968C911997189F502D1124540F4C
:100BC000283058F030E02850304081E090E002C0FA
:100BD000880F991F2A95E2F708C081E090E0022E65
:100BE00002C0880F991F0A94E2F7982F0023A1F002
:100BF000252F30E0CC2039F0ED91FC91E20FF31F6E
:100C00008081892B14C01296ED91FC911397E20F0D
:100C1000F31F8081892B15C0252F30E09095CC20C3
:100C200041F0ED91FC91E20FF31F808189238083D5
:100C30002BC01296ED91FC911397E20FF31F808168
:100C400089238083EE2001F140E0743008F041E018
:100C50001296ED91FC911397E50FF11D8081898328
:100C6000442341F0808190E024E0959587952A9572
:100C7000E1F78983660F460FCD01612F9E012F5F3B
:100C80003F4F01E00E9488050F90CF91DF911F91A7
:100C90000F91EF90CF900895CF92DF92EF92FF9255
:100CA0000F931F93CF93DF93EC01CC24DD243EC040
:100CB00019851C9D102D1124EC81FD81EC0DFD1D6D
:100CC000CE01608140E00E946D04CE0163E045E00A
:100CD00020E00E940A05CE0167E040E020E00E948B
:100CE0000A05E12EFF2400E010E00CC0EA81FB8140
:100CF000EE0DFF1DCE0168E040810E94580508946A
:100D0000E11CF11C98010F5F1F4F898590E02817A7
:100D1000390764F3EC81FD81EC0DFD1DCE0160818E
:100D200041E00E946D040894C11CD11C888590E0AC
:100D3000C816D9060CF4BCCFDF91CF911F910F914B
:100D4000FF90EF90DF90CF900895FC01808508958B
:100D500088E0089580E20895FC01408151814115A9
:100D6000510559F020858185289F900111246281C9
:100D70007381CA01A9010E94670208950F931F930E
:100D8000CF93DF93EC01062F142F98858985442398
:100D900031F0989F900111248881998105C0989F16
:100DA000900111248A819B8160E070E0A9010E947A
:100DB00070020023E9F11123D9F500E010E00BC027
:100DC000EC81FD81E00FF11FCE01608140E00E94C7
:100DD0006D040F5F1F4F888590E00817190784F393
:100DE000CE0163E045E020E00E940A05CE0167E005
:100DF00040E020E00E940A0510E0CE0164E04FEFE1
:100E00000E9458051F5F1032C1F700E010E00BC0D0
:100E1000EC81FD81E00FF11FCE01608141E00E9475
:100E20006D040F5F1F4F888590E00817190784F342
:100E3000DF91CF911F910F9108950F931F93CF933F
:100E4000DF93EC01042F122F4985222331F0649F98
:100E5000C00111242881398105C0649FC00111247B
:100E60002A813B81280F391FC90160E070E050E002
:100E70000E947002002329F0112319F4CE010E9470
:100E80004C06DF91CF911F910F910895CF92DF9281
:100E9000EF92FF920F931F938C01E62EF42EC62E35
:100EA000DD24DC011496ED91FC911597EC0DFD1DF0
:100EB0004083842F61E00E94070DC8016F2D41E03F
:100EC0000E946D04D8011496ED91FC911597EC0DDC
:100ED000FD1DC801608140E00E946D04C8010E94B0
:100EE000C604C80168E040E021E00E940A05C8018C
:100EF00068E041E021E00E940A05C80168E048E29C
:100F000021E00E940A05C80168E043E021E00E9458
:100F10000A05C80168E048E021E00E940A05C8010E
:100F200068E04FEA21E00E940A05D8011496ED918D
:100F3000FC911597EC0DFD1DC801608141E00E94F8
:100F40006D04C8016E2D41E020E00E941D071F9135
:100F50000F91FF90EF90DF90CF900895CF93DF93A4
:100F6000EC018A819B81009721F00E94AE011B82D7
:100F70001A828C819D81009721F00E94AE011D8212
:100F80001C8288819981009721F00E94AE0119820C
:100F90001882DF91CF910895DF92EF92FF920F9325
:100FA0001F93CF93DF93EC01F62ED42EE22E1B82FB
:100FB0001A821D821C822E834F83688780E2898774
:100FC000162F1295110F107E812F90E00E940401C0
:100FD0008A839B8360E070E0412F50E00E947002A2
:100FE000002361F0812F90E00E940401888399839F
:100FF00060E070E0412F50E00E9470028F2D90E081
:101000000E9404018C839D8360E070E04F2D50E0CE
:101010000E9470028E2D61E00E94070D8D2D61E00F
:101020000E94070DCE016E2D41E00E946D04CE019D
:101030006D2D41E00E946D04DF91CF911F910F91C2
:10104000FF90EF90DF9008950F938130910591F418
:101050006F5F7F4FE1F48AE191E061E04BE02AE0CD
:1010600001E00E94CC0784E291E06AE171E00E9415
:1010700077020DC0892B59F46F5F7F4F41F484E2F2
:1010800091E00E947B028AE191E00E94AE070F91FD
:10109000089580E090E06FEF7FEF0E9424080895AC
:1010A00081E090E06FEF7FEF0E94240808952F9277
:1010B0003F924F925F926F927F928F929F92AF92E8
:1010C000BF92CF92DF92EF92FF920F93CF93DF9375
:1010D000982F842F81548A3118F080528A3110F46D
:1010E0004F7109C0842F80538A3010F4455103C0DA
:1010F000403209F440E0EE24FF2485E0480220015C
:10110000112480E4282E312C692E7724A62EBB24AE
:10111000F701E40DF51DE859FF4FE491C0E0D0E080
:101120008E2E99246701C60CD71CC1010C2E02C05B
:10113000959587950A94E2F788219921892B49F0A2
:10114000AE014A0D5B1D84E291E0B60121E030E082
:1011500008C0AE014A0D5B1D84E291E0B60120E0BB
:1011600030E000E00E94EA022196C730D105E9F69E
:101170000894E11CF11C85E0E816F10449F6DF91C2
:10118000CF910F91FF90EF90DF90CF90BF90AF90F5
:101190009F908F907F906F905F904F903F902F9097
:1011A0000895EF92FF920F931F93CF93DF93F82E42
:1011B000E62E8A01C0E0D0E00BC0F801EC0FFD1F65
:1011C0008F2D6E2D40810E94570886E0F80E2196E3
:1011D000F80101900020E9F73197E01BF10BCE17E1
:1011E000DF0758F3DF91CF911F910F91FF90EF90A0
:1011F0000895BF92CF92DF92EF92FF920F931F93C9
:10120000CF93DF9380912701C82FD0E0269780915C
:101210002601E82EFF24BB2410E0CC24DD24C430BA
:10122000D1051CF4BB24B39408C08091270190E041
:101230000397C817D9070CF0BB248091260190E0D2
:10124000E816F90614F010E005C089E1E816F1048B
:101250000CF411E0BB2011F0219601C0219711235D
:1012600021F00894E11CF11C03C00894E108F10886
:1012700084E291E06E2D4C2F23E001E00E94940364
:101280008AE191E00E944C0664E670E080E090E024
:101290000E94A30C8AE191E060E040E00E94BE065B
:1012A0000894C11CD11C8BE4C816D10409F0B7CF37
:1012B000DF91CF911F910F91FF90EF90DF90CF9032
:1012C000BF900895CF92DF92EF92FF920F931F93FA
:1012D000CF93DF9380912701C82FD0E0279780918B
:1012E0002601082F10E0CC24DD24EE24FF241C1658
:1012F0001D061CF0CC24C39408C08091270190E007
:101300000797C817D9070CF0CC248091260190E0EC
:101310000817190714F0DD2405C01016110614F083
:10132000DD24D394CC2011F0219601C02197DD203B
:1013300019F00F5F1F4F02C001501040802F6C2F1B
:1013400040E051E00E94D1088AE191E00E944C0601
:1013500064E670E080E090E00E94A30C8AE191E0F6
:1013600060E040E00E94BE060894E11CF11C8BE4A2
:10137000E816F10409F0BBCFDF91CF911F910F91D7
:10138000FF90EF90DF90CF9008958F929F92AF9251
:10139000BF92CF92DF92EF92FF920F931F93CF9362
:1013A000DF938AE191E060E040E00E94BE06209178
:1013B000260130E040E050E060E070E080E090E046
:1013C0000E940A0EC62E2091260130E040E050E037
:1013D00060E070E080E090E00E940A0ED62E20913E
:1013E000270130E040E050E060E070E080E090E015
:1013F0000E940A0EF62E2091270130E040E050E0D6
:1014000060E070E080E090E00E940A0E162F61E03C
:1014100070E080E090E024E030E040E050E00E94A6
:101420000A0E862E61E070E080E090E024E030E07B
:1014300040E050E00E940A0E962E61E070E080E0ED
:1014400090E024E030E040E050E00E940A0EA62E3A
:1014500061E070E080E090E024E030E040E050E0C7
:101460000E940A0EB62EC0E0D0E084E291E06C2D1E
:101470004F2D2D2D012FEE24E3940E9415038AE1B8
:1014800091E00E944C0664E670E080E090E00E94EB
:10149000A30C84E291E06C2D4F2D2D2DEE240E94A3
:1014A0001503C80C409126012C2D332727FD3095BC
:1014B000842F90E08217930774F4C42E61E070E0EB
:1014C00080E090E024E030E040E050E00E940A0E2E
:1014D000862E81940EC0C7FE0CC061E070E080E0F3
:1014E00090E024E030E040E050E00E940A0E862EBA
:1014F000CC24D90C409126012D2D332727FD309582
:10150000842F90E08217930774F4D42E61E070E08A
:1015100080E090E024E030E040E050E00E940A0EDD
:10152000962E91940EC0D7FE0CC061E070E080E072
:1015300090E024E030E040E050E00E940A0E962E59
:10154000DD24FA0C409127012F2D332727FD3095FC
:10155000842F90E08217930774F4F42E61E070E01A
:1015600080E090E023E030E040E050E00E940A0E8E
:10157000A62EA1940EC0F7FE0CC061E070E080E0E2
:1015800090E023E030E040E050E00E940A0EA62EFA
:10159000FF241B0D40912701212F332727FD309574
:1015A000842F90E08217930774F4142F61E070E0A9
:1015B00080E090E023E030E040E050E00E940A0E3E
:1015C000B62EB1940EC017FF0CC061E070E080E051
:1015D00090E023E030E040E050E00E940A0EB62E9A
:1015E00010E0219681E0CC32D80709F03ECFDF91A0
:1015F000CF911F910F91FF90EF90DF90CF90BF9010
:10160000AF909F908F9008952F923F924F925F924C
:101610006F927F928F929F92AF92BF92CF92DF9202
:10162000EF92FF920F931F93DF93CF9300D000D0E0
:1016300000D0CDB7DEB784E291E06AE070E043E02D
:1016400050E021E030E000E00E94EA0284E291E014
:101650006CE070E044E050E021E030E00E94EA02FB
:1016600084E291E069E070E045E050E021E030E0A4
:101670000E94EA0284E291E06AE070E045E050E016
:1016800021E030E00E94EA0284E291E06DE070E047
:1016900045E050E021E030E00E94EA0284E291E07F
:1016A0006EE070E045E050E021E030E00E94EA02A8
:1016B00084E291E06FE070E045E050E021E030E04E
:1016C0000E94EA0268EE73E080E090E00E94A30CC2
:1016D0008AE191E00E94AC061A8219829EC0882D90
:1016E00090E09E838D837C010894E11CF11C84E2D0
:1016F00091E0B301A70121E00E94C6028C830D8115
:101700001E810150104084E291E0B301A80121E064
:101710000E94C6028B8384E291E0B1014D815E811B
:1017200021E00E94C602A82E84E291E0B101A70147
:1017300021E00E94C602B82E84E291E0B101A80126
:1017400021E00E94C602C82E84E291E0B2014D81E0
:101750005E8121E00E94C602D82E84E291E0B201AF
:10176000A70121E00E94C602F82E84E291E0B201B6
:10177000A80121E00E94C6029B81EC819E0F9A0D78
:101780009B0D9C0D9D0D9F0D980F923031F0933065
:1017900011F421E00BC020E009C084E291E0B30124
:1017A0004D815E8121E00E94C602282F84E291E0F3
:1017B000B3014D815E8130E000E00E94EA02839433
:1017C00080912701881608F48ACF9394809126018E
:1017D000981668F488248394692C7724130108945C
:1017E000211C311C2301089441085108E9CF8AE1EA
:1017F00091E00E944C068AE191E00E94AC0664E60A
:1018000070E080E090E00E94A30C89819A810196AB
:101810009A8389838B34910519F099249394D6CFB8
:1018200026960FB6F894DEBF0FBECDBFCF91DF91E5
:101830001F910F91FF90EF90DF90CF90BF90AF90EE
:101840009F908F907F906F905F904F903F902F90E0
:1018500008950E9462090E94F9080E94C5090E9429
:10186000040B0895FF920F931F930AE111E0C80142
:101870000E94A506F82EC8010E94AA0681508F9DDD
:10188000802D11248F5F80932601C8010E94A80635
:1018900080932701C80160E044E021E00E944607F0
:1018A0001F910F91FF9008950E94CD0C0E94320C61
:1018B0000E94290CFDCF1F920F920FB60F92112498
:1018C0002F933F938F939F93AF93BF9380912C015E
:1018D00090912D01A0912E01B0912F0130913001F6
:1018E0000196A11DB11D232F2D5F2D3720F02D57FF
:1018F0000196A11DB11D2093300180932C0190937E
:101900002D01A0932E01B0932F0180912801909179
:101910002901A0912A01B0912B010196A11DB11DB1
:101920008093280190932901A0932A01B0932B0161
:10193000BF91AF919F918F913F912F910F900FBECB
:101940000F901F901895EF92FF920F931F937B01BA
:101950008C018FB7F89440912C0150912D0160912A
:101960002E0170912F018FBF2FB7F89480912C0119
:1019700090912D01A0912E01B0912F012FBF841BBA
:10198000950BA60BB70BE816F9060A071B0760F7BD
:101990001F910F91FF90EF900895789484B5826025
:1019A00084BD84B5816084BD85B5826085BD85B503
:1019B000816085BDEEE6F0E0808181608083E1E8B2
:1019C000F0E0808182608083808181608083E0E8B4
:1019D000F0E0808181608083E1EBF0E080818460D1
:1019E0008083E0EBF0E0808181608083EAE7F0E0D3
:1019F0008081846080838081826080838081816037
:101A000080838081806880831092C1000895282F90
:101A100030E0C9018B579E4FFC0194912F583E4FE7
:101A2000F9018491882391F0E82FF0E0EE0FFF1F79
:101A3000ED5AFE4FA591B491662329F48C919095AF
:101A400089238C9308958C91892B8C9308951F92F0
:101A50000F920FB60F9211242F933F934F935F93E2
:101A60006F937F938F939F93AF93BF93EF93FF9366
:101A70004091C600E091B101F091B201CF01019611
:101A800060E870E00E94470E9C018091B301909144
:101A9000B4012817390739F0EF5CFE4F40833093CB
:101AA000B2012093B101FF91EF91BF91AF919F914E
:101AB0008F917F916F915F914F913F912F910F90F7
:101AC0000FBE0F901F901895FC01A085B18521894C
:101AD0008C9190E0022E02C0959587950A94E2F7CA
:101AE00080FFF6CF0484F585E02D6083089584E1BE
:101AF00091E09093B6018093B50181E391E09093DA
:101B0000B8018093B70185EC90E09093BA0180937F
:101B1000B90184EC90E09093BC018093BB0180EC10
:101B200090E09093BE018093BD0181EC90E0909392
:101B3000C0018093BF0186EC90E09093C201809336
:101B4000C10184E08093C30183E08093C40187E0F6
:101B50008093C50185E08093C60181E08093C70131
:101B600008950F931F93CF93DF938C01EB0109C06E
:101B70002196D801ED91FC910190F081E02DC801F2
:101B8000099568816623A1F7DF91CF911F910F918D
:101B90000895EF92FF920F931F93CF93DF938C01E1
:101BA0007B01EA010CC0D7016D917D01D801ED9157
:101BB000FC910190F081E02DC801099521972097B3
:101BC00091F7DF91CF911F910F91FF90EF900895C2
:101BD000EF92FF920F931F937B018C0161157105AA
:101BE0008105910529F420E030E040E050E00BC091
:101BF0000E945902A80197010E947C0EAC01CB0102
:101C0000DA019C01AD01B901CA011F910F91FF904A
:101C1000EF900895EF92FF920F931F937B018C0139
:101C2000621773078407950764F4261B370B480B6C
:101C3000590BCA01B9010E94E80DE60EF71E081FF4
:101C4000191FB701C8011F910F91FF90EF900895E0
:101C5000629FD001739FF001829FE00DF11D649F90
:101C6000E00DF11D929FF00D839FF00D749FF00D1C
:101C7000659FF00D9927729FB00DE11DF91F639FBD
:101C8000B00DE11DF91FBD01CF011124089597FB8F
:101C9000092E07260AD077FD04D049D006D00020AF
:101CA0001AF4709561957F4F0895F6F79095819598
:101CB0009F4F0895A1E21A2EAA1BBB1BFD010DC068
:101CC000AA1FBB1FEE1FFF1FA217B307E407F507EC
:101CD00020F0A21BB30BE40BF50B661F771F881FC8
:101CE000991F1A9469F760957095809590959B015E
:101CF000AC01BD01CF01089597FB092E05260ED03A
:101D000057FD04D0D7DF0AD0001C38F45095409519
:101D1000309521953F4F4F4F5F4F0895F6F79095BF
:101D20008095709561957F4F8F4F9F4F0895AA1BA7
:101D3000BB1B51E107C0AA1FBB1FA617B70710F0B6
:101D4000A61BB70B881F991F5A95A9F780959095E8
:101D5000BC01CD010895EE0FFF1F0590F491E02D19
:101D600009942F923F924F925F926F927F928F923F
:101D70009F92AF92BF92CF92DF92EF92FF920F931A
:101D80001F93CF93DF93CDB7DEB7CA1BDB0B0FB624
:101D9000F894DEBF0FBECDBF09942A8839884888E1
:101DA0005F846E847D848C849B84AA84B984C88477
:101DB000DF80EE80FD800C811B81AA81B981CE0F6E
:101DC000D11D0FB6F894DEBF0FBECDBFED01089553
:101DD00011E0C2EBD1E004C0FE010E94AD0E2296DC
:0A1DE000C43BD107C9F7F894FFCF08
:101DEA0048656C6C6F002000CC0100000100000007
:0A1DFA0000000000640DB10DC90DDA
:00000001FF
